:03000000020D935B
:0C0D9300787FE4F6D8FD758127020DDAA8
:1008000042657374207769736820746F20796F75FF
:1008100000DB81000081C3E7FF81819F8181F98135
:1008200081FF81819999998181FF8181999999812C
:1008300081FF81819F81FD8181FFDBC9DBDBDBDB08
:1008400081FF81999981999981FFE7C38181C3E7EC
:10085000FF01060126014A015D018801B801EE028F
:100860000B0242029302BA0310037003DC04160465
:100870009705260575062006E007B8F921F9E0FA84
:100880008BFAD7FB68FBE8FC5BFC8EFCE2FD44FDC9
:100890006BFDB4FDF4FE2DFE47FE77FEA2FEB6FE14
:1008A000DAFEFAFF16486170707920426972746846
:1008B000646179200009080908090A0C0A09080975
:1008C00008090A09080609080908090A0C0A090A98
:1008D00009080909FF09080908090A0C0A090A098F
:1008E00008060A090809080A09080908050A090882
:1008F0000908FF08090A080D0C0D0D090E0D0E0E52
:100900000D0E0E0A0F100F0E0D0C0D0C0D0C0D0D13
:100910000C0D0C09090C0A0A08090A080D0C0D0D2A
:10092000090E0D0E0E0D0E0E0A0F100F0E0D0C0DF2
:100930001111110C0D1111110C0D0DFF0F101114CF
:10094000131314131314131010111413131413137B
:1009500014131311100F0D0D0F0F100F0D0D0F119C
:100960001110100F10111413131413131413131068
:100970001114131314131314131311100F0D0D115D
:1009800010100F0D0D0F0FFF0D1110100F0D0D1189
:1009900010100F0D0D0F0F030103010202020203DD
:1009A000010301010101010403010301020202022A
:1009B0000301020101040403010301020202020314
:1009C000010202040101010104010101010301010D
:1009D00001010103040202020202010103010201FA
:1009E00004020101020201010101030102010201ED
:1009F00001010102010102010108020202020201D9
:100A000001030102010402010102020101010103CB
:100A100001020101020202010101020108040202B5
:100A200002010102010102010102020201010201AF
:100A3000010201010203020101010201020101029E
:100A4000020301010202020201010201010201018D
:100A5000020202010102010102010102020201017E
:100A60000102010201010103080401010302010165
:090A70000102010201010102086A
:100EAA00022400FC02260067C100C1810121000161
:050EBA00220001231FCE
:100E1F00E4F50878097C00FD7BFF7A0879A5FE7F51
:100E2F0010120B49D2AFC294C29375890185258CDC
:100E3F0085278AD2A9D28C120E907B007A0079096D
:100E4F00E4FD7F01120E687BFF7A0879007D01E4D3
:090E5F00FF120E68120B9A80FBD1
:100B9A00E4FBFAFDFCF51AF51BF9E9C394E24003FC
:100BAA00020CAF3000FDC200EB4A6003020C8AE976
:100BBA009008B59314F519C39464405190087BE4E6
:100BCA0093F525752400E493F526740193F527E936
:100BDA0090099793FF7E00900851E493FC74019367
:100BEA00FD120B88EF7802CEC313CE13D8F9FDACF1
:100BFA00067802CEC313CE13D8F9FFC3ED9FF51BB7
:100C0A00EC9EF51AC2010BBB00010A808DE519257D
:100C1A00E0247BF582E43408F583E493F525752412
:100C2A0000E51925E0247BF582E43408F583E49392
:100C3A00F526740193F527E990099793FF7E00E55D
:100C4A001925E02451F582E43408F583E493FC7411
:100C5A000193FD120B88EF7802CEC313CE13D8F995
:100C6A00FDAC067802CEC313CE13D8F9FFC3ED9FAD
:100C7A00F51BEC9EF51AD2010BBB00010A020BA46C
:100C8A00C3EB9DEA9C4007E4FAFB09020BA40BBBE9
:100C9A0000010AEB651B7003EA651A6003020BA4E4
:050CAA00C201020BA4D1
:010CAF002222
:03000B00020CB034
:0D0CB000C0E0C083C082C0D075D000C0007D
:100CBD0085258C85278AD200300104B2968002D218
:100CCD0096E521B408004003020D71900CDFF82861
:100CDD002873020CF7020D06020D15020D24020DEC
:100CED0033020D42020D51020D60C292C291C290AB
:100CFD000521E5239008118068C292C291D290051A
:100D0D0021E5239008128059C292D291C2900521FB
:100D1D00E523900813804AC292D291D2900521E525
:100D2D0023900814803BD292C291C2900521E523F5
:100D3D00900815802CD292C291D2900521E5239076
:100D4D000816801DD292D291C2900521E5239008FC
:100D5D0017800ED292D291D290752100E523900882
:100D6D001893F5800522E522C394FA400E752200F2
:0B0D7D000523E5239438400375230094
:0B0D8800D000D0D0D082D083D0E03269
:100EC0007580FFC290D291D295AF80C295EF20E796
:010ED000F62B
:010ED10022FE
:100EE400AE07120EC0C290C2918E80D295C29522D6
:100EF400AE07120EC0D290C2918E80D295C29522B6
:100ED200ED7004AC078004EF2440FCEC4480FF0278
:020EE2000EE41C
:100E68008B198A1A891B120ED2AB19AA1AA91B123E
:100E78000B6F6013051BE51B7002051A14F9120BA2
:080E88006FFF120EF480E2225C
:100E90007F38120EE47F0C120EE47F06120EE47F00
:0A0EA00001120EE4E4FDFF020ED281
:100D9F00020E1FE493A3F8E493A34003F68001F23D
:100DAF0008DFF48029E493A3F85407240CC8C33355
:100DBF00C4540F4420C8834004F456800146F6DF24
:100DCF00E4800B0102040810204080900EAAE47EFC
:100DDF00019360BCA3FF543F30E509541FFEE49319
:100DEF00A360010ECF54C025E060A840B8E493A3E0
:100DFF00FAE493A3F8E493A3C8C582C8CAC583CA0B
:100E0F00F0A3C8C582C8CAC583CADFE9DEE780BEC2
:010EBF000032
:100A7900E709F608DFFA8046E709F208DFFA803E5F
:100A890088828C83E709F0A3DFFA8032E309F6084C
:100A9900DFFA8078E309F208DFFA807088828C83B4
:100AA900E309F0A3DFFA806489828A83E0A3F60868
:100AB900DFFA805889828A83E0A3F208DFFA804C42
:100AC90080D280FA80C680D4806980F28033801019
:100AD90080A680EA809A80A880DA80E280CA803382
:100AE90089828A83ECFAE493A3C8C582C8CCC583FA
:100AF900CCF0A3C8C582C8CCC583CCDFE9DEE780CA
:100B09000D89828A83E493A3F608DFF9ECFAA9F048
:100B1900EDFB2289828A83ECFAE0A3C8C582C8CC9E
:100B2900C583CCF0A3C8C582C8CCC583CCDFEADEB7
:100B3900E880DB89828A83E493A3F208DFF980CC19
:100B490088F0EF60010E4E60C388F0ED2402B40412
:100B59000050B9F582EB2402B4040050AF232345B9
:060B69008223900AC9730B
:100B6F00BB010689828A83E0225002E722BBFE0284
:090B7F00E32289828A83E49322B7
:100B8800EF8DF0A4A8F0CF8CF0A428CE8DF0A42E81
:020B9800FE223B
:00000001FF
